:020000040002F8
:10600000D0930020F96202000163020003630200E2
:10601000056302000763020009630200000000003C
:106020000000000000000000000000000B63020000
:106030000D630200000000000F630200AD66020065
:1060400015660200136302009569020013630200E3
:1060500013630200136302008963020013630200EA
:106060001363020013630200136302001363020050
:106070001363020013630200136302001363020040
:1060800013630200696602001363020013630200D7
:106090009D66020013630200A566020013630200FE
:1060A0001363020013630200136302001363020010
:1060B00013630200136302000000000000000000F0
:1060C00013630200136302001363020013630200F0
:1060D0001363020013630200136302000000000058
:1060E00000000000000000000000000000000000B0
:1060F00000000000000000000000000000000000A0
:10610000000000000000000000000000000000008F
:10611000000000000000000000000000000000007F
:10612000000000000000000000000000000000006F
:10613000000000000000000000000000000000005F
:10614000000000000000000000000000000000004F
:10615000000000000000000000000000000000003F
:10616000000000000000000000000000000000002F
:10617000000000000000000000000000000000001F
:10618000000000000000000000000000000000000F
:1061900000000000000000000000000000000000FF
:1061A00000000000000000000000000000000000EF
:1061B00000000000000000000000000000000000DF
:1061C00000000000000000000000000000000000CF
:1061D00000000000000000000000000000000000BF
:1061E00000000000000000000000000000000000AF
:1061F000000000000000000000000000000000009F
:10620000DFF80CD000F0AEF80048004761840200CF
:10621000D093002030B4044654E8000F0D4644E803
:106220000053002BF8D1156030BC704730B40446E1
:1062300054E8000F40EA010544E80053002BF7D171
:10624000156030BC704730B4044654E8000F00EAD3
:10625000010544E80053002BF7D1156030BC7047AE
:1062600030B4044654E8000F80EA010544E80053C6
:10627000002BF7D1156030BC704730B4044654E8A9
:10628000000F00EB010544E80053002BF7D1156027
:1062900030BC704730B4044654E8000FA0EB010551
:1062A00044E80053002BF7D1156030BC704770B440
:1062B00004464FF0000054E8006F0D68AE4207BF7F
:1062C00044E80023012044E800630E60002B1CBF5B
:1062D0000020F0E770BC704730B4044654E8000F6B
:1062E00088422CBF451A054644E80053002BF5D1DF
:1062F000156030BC704700000648804706480047DC
:10630000FEE7FEE7FEE7FEE7FEE7FEE7FEE7FEE765
:10631000FEE7FEE7FD6602000162020040EA0103BB
:106320009B0703D009E008C9121F08C0042AFAD24B
:1063300003E011F8013B00F8013B521EF9D270470F
:10634000D2B201E000F8012B491EFBD270470022B7
:10635000F6E710B513460A4604461946FFF7F0FF64
:10636000204610BD064C074D06E0E06840F00103F2
:1063700094E8070098471034AC42F6D3FFF744FF87
:106380007CA302009CA302002DE9F04F89B00027F6
:10639000002008904FF4807007900126002412E03E
:1063A000079802F053FB40B100BF7B4800683040C3
:1063B00018B1079802F03CFB374376000798001DA0
:1063C00080B20790641C082CEAD34FF4BE7002F030
:1063D0003DFB50B14FF4BE7002F02AFB47F000477E
:1063E00008AA0121002002F009FBF8B200B301263F
:1063F00000241BE006EA0700B0B100BF674850F870
:106400002400C0F30420804600BF644850F82400F4
:10641000C0F301408146204601F02EF9054615B132
:1064200049464046A84700BF7600641C082CE1D3CB
:1064300007F0004000287DD0002006900590002540
:1064400005E04FF0FF3004A941F825006D1C002D38
:10645000F7D000BF0020069000245FE05048005DA8
:106460000390039820F0C0094D480057401C0028B5
:1064700053D004A9484602F01DF900284DD00398D6
:106480004FEA901A484601F0FFF8804601F0F4F810
:106490000290029810B9BAF1030F3DD1BAF1030F7F
:1064A00003D105A9484602F010F900BF00BF4FF024
:1064B000A041084600F5E06151F82910C1F30148F8
:1064C00000BF08A9484602F0F5F88346BBF1000F6B
:1064D00002D0B8F1020F05D0BBF1000F1BD1B8F10B
:1064E000030F18D1BAF1030F0FD1B8F1020F01D188
:1064F000032000E0022001904846019902F030FAA2
:106500000698401CC0B2069000BF029818B15146D0
:106510004846029A904700BF00BF641C042C9DD3DC
:10652000069888B34FF0010803AA0121002002F069
:1065300065FA00E02DE000250BE003A850F82500E7
:1065400008A951F82510884202D04FF0000802E057
:106550006D1C002DF1D000BFB8F1000F02D000205B
:10656000069010E000250CE003A850F8250008A9CB
:1065700041F8250005A850F8250004A941F8250098
:106580006D1C002DF0D000BF069800287FF462AF8C
:1065900000BF09B0BDE8F08F046300401065004003
:1065A0008C72002000F01F0201219140024A430931
:1065B00042F823107047000080E200E000F01F0264
:1065C000012191404209920002F1E022C2F800113B
:1065D0007047000000F01F0201219140024A430968
:1065E00042F823107047000000E200E010B50028D8
:1065F00007DA4A07140E054A00F00F031B1FD45494
:1066000003E04A07130E024A135410BD18ED00E0D0
:1066100000E400E010B54FF4807002F039F980B169
:106620004FF4807002F03DF9012002F043F90D486B
:10663000407930B901200B494871084601680020B3
:1066400088474FF4827002F023F950B14FF4827002
:1066500002F027F9022002F02DF90248016801201A
:10666000884710BD9C4F002010B5002009490860E4
:1066700000210948C0F84411C0F84811C0F84C1175
:1066800000200549C1F8000102493C39086003F0C7
:1066900055FC10BD401101400010014010B503F041
:1066A00057FB10BD10B502F0D7FA10BD10B50E485B
:1066B000006D401C0C490865002412E00A4850F89F
:1066C000240068B10848016D283050F82400B1FB5F
:1066D000F0F200FB121018B9034951F8240080476A
:1066E000641C0A2CEADB10BD0C7100200148024931
:1066F000086070470090D003E84F002010B501F00B
:10670000F1F928B192480088C0F30420914908604B
:1067100001F03CFA10B190489049486701F05EFAE8
:1067200030B18B48E0380068C0F342308C490860D3
:1067300001F07EFA28B18B48006820F0807089490A
:10674000086001F08DFA48B10020874908604FF0D9
:106750008041C1F810018249091F086001F0AAFABE
:1067600018B103207E496431086001F0BBFA68B1BA
:1067700005207E49086001207C49783108600020AE
:106780007A49083108603F20091F086001F0C2FA09
:10679000002855D06E48E0300068754908606C48A4
:1067A000E4300068091D08606948E8300068091D88
:1067B00008606748EC300068091D08606448F030E4
:1067C0000068091D08606248F4300068091D08600F
:1067D0005F48F83000686649203108605C48FC304A
:1067E0000068091D086063480068091D0860614869
:1067F000001D0068091D08605E4808300068091D1A
:1068000008605C480C300068091D08605948103069
:106810000068574940310860564814300068091D27
:106820000860544818300068091D086051481C3041
:106830000068091D08604F4820300068091D086085
:1068400001F026F930B14248CC38006800F04F0022
:106850004949086001F070F940B14848006800F00B
:10686000010018B16FF001004449086001F0A6F979
:1068700028B14348006840F48060414908603948C5
:106880007438006840F4700036497439086000BFFD
:1068900000BF00BFBFF34F8F00BF00BF00BF00BFEE
:1068A00000BF00BFBFF36F8F00BF00BF00BF354800
:1068B000006800F0004028B93248001D006800F070
:1068C0000040E8B301203049086000BF2F4800684D
:1068D0000028FBD015202B49086000BF2B4800681A
:1068E0000028FBD015212748001D016000BF274864
:1068F00000680028FBD000202349086000BF23481F
:1069000000680028FBD000BF00BF00BF00BF00BF71
:10691000BFF34F8F00BF00BF00BF1248F0380068C0
:1069200000F4E0601A490843001D0E49F039086080
:1069300000BF00BF00BFBFF34F8F00BF00BF00E02C
:1069400003E000BF00BF00BFFDE7FFF7CFFE10BDB3
:1069500024030010403501400DF0ADBA00C00740DF
:106960003C050040FCED00E00C01004010560040EA
:1069700020C5004024040010E40E00400004004044
:106980003C1700400012001004E5014000E4014003
:106990000000FA0510B502490868804710BD0000E4
:1069A000A44F002002E008C8121F08C1002AFAD133
:1069B00070477047002001E001C1121F002AFBD17F
:1069C000704700000146202908DA012088400A4A61
:1069D000104008B1012070470020FCE7402909DA87
:1069E000A1F12000012202FA00F008B10120F2E733
:1069F0000020F0E70120EEE7FC06FFBD00BFEFF34B
:106A00001081084672B670470146082901D300205C
:106A1000704719B1012901D0042901D10020F7E7FD
:106A20000120F5E7F0B58FB005460E4617461C4627
:106A3000002007901C2108A8FFF789FC0020009087
:106A4000142102A8FFF783FC00BF9DF81C0020F072
:106A50000F00401C8DF81C009DF81C0020F0F00079
:106A600010308DF81C0000BF00BF9DF81D0020F005
:106A70000F00401C8DF81D009DF81D0020F0F00057
:106A800010308DF81D0000BF9DF81E0020F006009C
:106A9000801C8DF81E009DF8200020F00200801C54
:106AA0008DF820009DF8200020F0100010308DF8A7
:106AB0002000002009900B900C9007A80D9000205A
:106AC0000E90A8788DF80600ADF8047000BF9DF810
:106AD000000020F00F00401C8DF800009DF8000021
:106AE00020F0F00010308DF8000000BF00BF9DF8CE
:106AF000010020F00F008DF801009DF8010020F04A
:106B0000F0008DF8010000BF9DF8020020F00600A3
:106B1000801C8DF802009DF8020020F008008DF81E
:106B200002009DF8020020F010008DF802009DF890
:106B3000020020F001008DF8020001A80290CDF8BB
:106B40000CD0A0B2ADF810000020ADF81200A0B239
:106B5000ADF81400002006902888334602AA08A940
:106B6000AADF0FB0F0BDF0B58FB005460E46174650
:106B70001C461C2108A8FFF7EAFB00200190142105
:106B800003A8FFF7E4FB9DF8200020F00200801C22
:106B90008DF820009DF8200020F0080008308DF8C6
:106BA0002000002009900B900C900D900E90A8787A
:106BB0008DF80A00ADF8087000BF9DF8040020F0C1
:106BC0000F00401C8DF804009DF8040020F0F00038
:106BD00010308DF8040000BF00BF9DF8050020F0C4
:106BE0000F00401C8DF805009DF8050020F0F00016
:106BF00010308DF8050000BF9DF8060020F006005B
:106C0000801C8DF806009DF8060020F008008DF825
:106C100006009DF8060020F010008DF806009DF893
:106C2000060020F001008DF8060002A8039001A8DC
:106C30000490A0B2ADF814000020ADF81600A0B288
:106C4000ADF81800002007902888334603AA08A949
:106C5000AADF0FB0F0BD000030B5A5B03048006825
:106C60000690304880788DF81A003C2116A8FFF76E
:106C70006EFB02208DF8580001208DF85A00062086
:106C80008DF85B003C2107A8FFF761FB0120ADF800
:106C90002C0006A90C912448021D016816A800F0DA
:106CA000AAF9044600BF254625B100BF284600F0DA
:106CB000B3F800BF00BF1C4800F10C02816807A8B0
:106CC00000F099F9044600BF254625B100BF2846CB
:106CD00000F0A2F800BF00BF18216846FFF737FB9D
:106CE00001208DF815000020ADF80C0001208DF872
:106CF0000000002001908DF814004FF480500290A5
:106D00006A460949094872DF044600BF254625B195
:106D100000BF284600F080F800BF00BF25B030BD9E
:106D200048A20200E06D00205C4F00205A4F002076
:106D300070B501210848007873DF044600BF25467E
:106D400025B100BF284600F067F800BF00BF002053
:106D500000F066FC70BD00005A4F002010B5002402
:106D600006E00849096811F8340002F031F8641CA3
:106D7000054800788442F4D30448006800F0D0F855
:106D800010BD0000B04F0020B44F0020BCA2020094
:106D900010B5002407E00749096811F83400012103
:106DA00002F040F8641C044800788442F3D30020C9
:106DB00010BD0000B04F0020B44F002072B600BFDD
:106DC0001348006800F0010000B100BE00BF00BF22
:106DD00000BF00BF00BF00BFBFF34F8F00BF00BFA9
:106DE00000BF0B48E438006800F4E060094908433C
:106DF000001D0749E439086000BF00BF00BFBFF3B2
:106E00004F8F00BF00BF00BF00BF00BFFDE7000005
:106E1000F0ED00E00000FA053EB5044600200090C9
:106E20000190029002946A46002144F20100FFF7AB
:106E3000C5FF3EBD10B503460C4600BF0B48807829
:106E400008B9082010BD00BF0AB90720FAE70BB93E
:106E50000720F7E71868007C08B10820F2E71968F6
:106E6000002008744C744A6100BFEBE7B872002040
:106E700010B502F04FFC00200F49087048700B203D
:106E8000887000200D4908600D4908700D49087090
:106E90001420FFF787FB07211420FFF7A7FB14201E
:106EA000FFF78CFB002002F00BFC02F003FC06490C
:106EB0000860002010BD0000B8720020D04F0020F4
:106EC000E04F0020E14F0020D44F00202DE9F04199
:106ED00004460E461746254600BF1048807810B974
:106EE0000820BDE8F08100BF0CB90820F9E7052EA5
:106EF00001D20720F5E7686908B90820F1E7687C46
:106F0000012801D1304600E0002080463B46424641
:106F10003146284602F0C2FFE3E70000B8720020C5
:106F200070B50446254600BF0848807808B9082097
:106F300070BD00BF0CB1686908B90820F8E70020EF
:106F400028740221284602F0D8FFF1E7B872002029
:106F500010B50446204602F075FC10BD70B504461D
:106F600025460E488068B0B1ADB9FFF747FD06462B
:106F70000A4800680A490860084840684FF0E02164
:106F8000C1F804010020054988601EB900BF62B63F
:106F900000BF00BF00BF00BF70BD0000C473002071
:106FA00000E100E0F8B505460C4617462088001DB4
:106FB000B84201D90C20F8BD684679DF064600BF0B
:106FC000304600B1F7E700BF0320218868542088CD
:106FD000401C20801920218868542088401C208073
:106FE00020884119BDF8000003F021F821880844E9
:106FF00020800020DFE72DE9FC4105468846164643
:10700000002437880020308095F82D0058B13A468A
:107010003146404600F0F4F8044600BF204608B16F
:10702000BDE8FC8100BFA87850B13A4631464046E1
:10703000FFF7B8FF044600BF204600B1F0E700BFED
:10704000E87860B1E97848B23B463246414600F004
:10705000A5FE044600BF204600B1E1E700BF686816
:1070600068B1696891F900003B463246414602F03A
:10707000BDFF044600BF204600B1D1E700BF28890C
:1070800000280EDD43460622022105F10800CDE965
:10709000006703F047F8044600BF204600B1BFE791
:1070A00000BF288A00280EDD43460722032105F190
:1070B0001000CDE9006703F035F8044600BF204614
:1070C00000B1ADE700BF288B00280EDD4346152236
:1070D000142105F11800CDE9006703F023F80446F8
:1070E00000BF204600B19BE700BF286A58B13B466D
:1070F00032464146286A00F08CFB044600BF204619
:1071000000B18DE700BF686A58B13B463246414640
:10711000686A01F0C7F9044600BF204600B17FE766
:1071200000BF95F82C0000280BDD3B463246414657
:10713000284602F045FC044600BF204600B16FE738
:1071400000BF287858B13B4632464146284601F0F8
:107150000FFA044600BF204600B161E700BF204699
:107160005EE700002DE9F041044600BF14B90E208F
:10717000BDE8F08100BF1C2221461C48FFF7CEF875
:107180001B481A490860206860B120687ADF05460C
:107190000DB12846ECE7164821680A680260496884
:1071A000416005E012487BDF05460DB12846DFE768
:1071B000002617E006EB86000E4901EB800700BFB2
:1071C0004FF6FF70388000BF0B4800EB4610786028
:1071D0000A4A0021381DFFF72DFE05460DB1032098
:1071E000C6E7761C002EE5D00020C1E79471002090
:1071F000924F002080710020607100203DA00200AD
:107200002DE9FC4105460C46174620880930B84256
:1072100002D90C20BDE8FC8168466DDF064600BF40
:10722000304600B1F6E700BF082021886854208866
:10723000401C20801B20218868542088401C20800E
:1072400020882844DDF801100160BDF80510818018
:107250002088801D20809DF80000400818B900207B
:107260002188685402E00120218868542088401C4D
:1072700020800020CEE70000F8B505460F4628889C
:1072800021285ED008DC10280FD0112830D0132818
:1072900046D01D2876D194E0262874D03B2874D09F
:1072A00052285ED05628F5D17DE0012000F0B8F9D3
:1072B000002000F0ABF9A8884C49088008460088F7
:1072C00001F02CF900BF264626B100BF3046FFF77B
:1072D000A3FD00BF00BFFFF75BFD044600BF2646CD
:1072E00026B100BF3046FFF797FD00BF00BF7BE02F
:1072F000012000F08BF94FF6FF703C490880FFF742
:107300002DFD044600BF264626B100BF3046FFF7DC
:1073100083FD00BF00BFFFF79FFCFFF709FD63E09F
:1073200000231A468521314800887FDF044600BFCC
:10733000264626B100BF3046FFF76EFD00BF00BFF6
:1073400052E000200090A88869468FDF044600BF05
:10735000264626B100BF3046FFF75EFD00BF00BFE6
:1073600042E000231A46194620480088B1DF04464F
:1073700000BF264626B100BF3046FFF74DFD00BFD7
:1073800000BF31E02FE023E0FFE7A888132176DF7C
:10739000044600BF264626B100BF3046FFF73CFD3D
:1073A00000BF00BF20E0A888132176DF044600BF9D
:1073B000264626B100BF3046FFF72EFD00BF00BFB6
:1073C00012E005F1080001F0DBFD01F0CDFD0BE05E
:1073D000064800884FF6FF71884203D1FFF73CFC56
:1073E000FFF7A6FC00E000BF00BFF8BD584F00202B
:1073F00070B504460D462088102806D0112808D004
:1074000012280ED0502810D107E0204601F01CFEB3
:107410000CE0204601F0C6FE08E0204601F0E8FF3F
:1074200004E0204601F0F8FD00E000BF00BF70BDA1
:107430002DE9F04104468846A5882088102804D00C
:10744000112815D01A2847D116E002F0FFF8284677
:1074500002F0D8F820B900BF0420FFF7DDFC06E0F9
:10746000E07B012803D029461D4801F0FEF833E0F7
:10747000284602F00FF92FE0207A0121B1EB101F0E
:1074800001DA012000E000200646207A0221B1EB5B
:10749000101F01DA012000E0002007468EB12946C6
:1074A0000F48001D01F0E1F82FB129460C480830C3
:1074B00001F0DBF80FE029460948083001F0B7F881
:1074C00009E029460648001D01F0B1F829460448A4
:1074D000083001F0ACF800BF00BFBDE8F08100004B
:1074E000BC71002070B50446204602F09AFD0546A6
:1074F00005F0010070BD08B50020009000BF01F04C
:1075000067FB0028FBD100BF6946012001F0C4FAE7
:107510000028F9D100BF684601F010FB0028FAD11D
:1075200008BD000070B598B006460D4601243C2108
:1075300009A8FEF70CFF182103A8FEF708FF00209A
:107540000090019002901F201C4988801B2D00DDB7
:107550001B254FF6FF70ADF800000296ADF8045001
:10756000CDF848D01548021D016809A8FFF743FD72
:1075700018B184F0010018B070BD01208DF8210011
:107580000C20ADF8180005208DF80C003020059077
:107590000B48007874DF03AA0849094872DF10B16C
:1075A00084F00100E7E701210548007873DF10B19E
:1075B00084F00100DFE72046DDE700006C4F00208B
:1075C0005A4F00207CB500240DE00848055D0326D5
:1075D000002000903346024601460190284601F003
:1075E000ABF900BF641C042CEFD37CBD60A2020089
:1075F00010B5044604F0010008B100F01BF804F0D7
:10760000020008B1FFF7DEFF10BD000010B5044610
:107610000249085D012101F0D3F910BD5CA202000E
:1076200010B504460249085D002101F0C9F910BDFA
:107630005CA202007CB500240CE00948055D002036
:1076400000900346012211460190284601F074F98A
:1076500000BF641C042CF0D300F004F87CBD0000D3
:107660005CA2020010B5002403E02046FFF7CEFF25
:10767000641C042CF9D310BD0146024850F82100C7
:10768000704700003C720020014601484056704798
:107690006C72002070B505460DB9094C01E0084C2C
:1076A000083409E0204600F01EFE064606B904E054
:1076B00028467168884700BFF4E700BF70BD00002E
:1076C0003072002010B504462CB9012006494870DC
:1076D0000020FFF7DFFF012C04D101200249887050
:1076E000FFF7D8FF10BD0000287200202DE9F047F9
:1076F00082461F480068002836D01D48006805688B
:1077000001F0D8FF07461B4804682146384602F0BE
:1077100013FBC61C1848007808B901F0DDFFAE4223
:1077200001D2284600E03046044424F07F4420463D
:1077300001F0BAFF01F0BEFF80463946404602F034
:10774000FBFA00F103093946204602F0F5FA8145BB
:1077500009D901F0AFFF814601F0A6FF2F2001F00B
:107760002BFB02F037FC01E001F0D4FFBDE8F0870D
:10777000D04F0020D44F0020E24F002033B58BB013
:107780000546002000900C9878B100240BE02146BB
:107790000CA800F05BFF28B1009A501C009001A8D3
:1077A00020F81240641C142CF1D32C226946284680
:1077B000FEF7B4FD0DB030BD01460888062808DB91
:1077C0000888B0F5486F06DD08884FF6FF729042D2
:1077D00001D0072070474888062808DB4888B0F5A4
:1077E000486F06DD48884FF6FF72904201D00720AF
:1077F000F0E708884FF6FF72904208D04888904220
:1078000005D008884A88904201DD0720E2E7002081
:10781000E0E72DE9F04107460D46144698462088DA
:10782000801D404502D90C20BDE8F0813846FFF7A5
:10783000C3FF064600BF304600B1F5E700BF052094
:10784000218868542088401C208012202188685498
:107850002088401C208022885119388802F0E7FBDC
:1078600021880844208022885119788802F0DFFBA3
:107870002188084420800020D6E710B5044600BFC8
:107880002046FFF7C9FA00BF10BD000030B587B031
:107890001C216846FEF75BFD002000904FF420306D
:1078A00001904FF47020029003208DF80C0000200E
:1078B000ADF80E0001208DF810000020059008485A
:1078C00006906846FFF74EFC044600BF254625B1EA
:1078D00000BF2846FFF7A0FA00BF00BF07B030BDC9
:1078E0007B780200F8B505460C46607A88B9207AA4
:1078F00010B91048476801E00E4887682A463946A3
:107900006068FFF7E3FA064616B1304602F03AF82F
:107910000EE0002020720748406948B101208DF830
:107920000000ADF80250034841696846884700BF2F
:10793000F8BD0000947100207FB506460C4600207B
:1079400002900390ADF80840ADF80A400090019015
:107950006A4602A9304690DF054605B100BF2846B9
:1079600004B070BD020A0A7048707047020E0A70B7
:10797000020C4A70020A8A70C870704701461448A7
:107980000078144A127890421DD011480078401CAB
:107990000F4A107010460078022801D100201070A4
:1079A0000D480B4A127850F8220008600B4A08680C
:1079B00012681044094A10601046006820F07F40A9
:1079C0001060012070470020086000BFFAE7000047
:1079D000E04F0020E14F0020D84F0020D44F00207E
:1079E00070B505460C46002030E000EBC002274988
:1079F00001EB8201C96941BB04F0060169B100EBEA
:107A0000C002224901EB8201096A41F0060200EB43
:107A1000C0031E4901EB83010A6204F0180169B139
:107A200000EBC002194901EB8201096A41F018021A
:107A300000EBC003154901EB83010A6200EBC002B1
:107A4000124901EB8201CD610AE0401C642807DA8B
:107A500000EBC0020D4901EB8201C969A942C4D102
:107A600000BF04F0140030B104F0010018B101208F
:107A700000F0FEF908E004F00A0028B104F001006B
:107A800010B1002000F0F4F970BD0000AC5F0020E0
:107A900013480078062820D11148001D007800F016
:107AA0000F00D0B90E480830007800F0F000302800
:107AB00001D1012070470A480830007800F0F0003A
:107AC000402801D10120F5E705480830007800F092
:107AD000F000502801D10120ECE70020EAE7000087
:107AE000E00F00F013480078062820D11148001D4F
:107AF000007800F00F00D0B90E480830007800F090
:107B0000F000302801D1012070470A480830007881
:107B100000F0F000402801D10120F5E705480830C9
:107B2000007800F0F000502801D10120ECE700209F
:107B3000EAE70000E00F00F013480078062820D1A3
:107B40001148001D007800F00F00D0B90E48083031
:107B5000007800F0F000302801D1012070470A4879
:107B60000830007800F0F000402801D10120F5E74E
:107B700005480830007800F0F000502801D10120BD
:107B8000ECE70020EAE70000E00F00F00A48007888
:107B900006280ED10848001D007800F00F0040B9FB
:107BA00005480830007800F0F000302801D10120AD
:107BB00070470020FCE70000E00F00F00648006876
:107BC000062806D10448001D0068062801D10120BE
:107BD00070470020FCE700003001001013480078D7
:107BE000062820D11148001D007800F00F00D0B900
:107BF0000E480830007800F0F000302801D1012054
:107C000070470A480830007800F0F000402801D1A1
:107C10000120F5E705480830007800F0F000502812
:107C200001D10120ECE70020EAE70000E00F00F0BE
:107C30000A48007806280ED10848001D007800F098
:107C40000F0040B905480830007800F0F0003028F7
:107C500001D1012070470020FCE70000E00F00F098
:107C600013480078062820D11148001D007800F044
:107C70000F00D0B90E480830007800F0F00030282E
:107C800001D1012070470A480830007800F0F00068
:107C9000402801D10120F5E705480830007800F0C0
:107CA000F000502801D10120ECE70020EAE70000B5
:107CB000E00F00F00A48007806280ED10848001DA1
:107CC000007800F00F0040B905480830007800F057
:107CD000F000302801D1012070470020FCE70000AF
:107CE000E00F00F00A48007806280ED10848001D71
:107CF000007800F00F0040B905480830007800F027
:107D0000F000302801D1012070470020FCE700007E
:107D1000E00F00F00A48007806280ED10848001D40
:107D2000007800F00F0040B905480830007800F0F6
:107D3000F000502801D1012070470020FCE700002E
:107D4000E00F00F0F0B5034600241FE0124E30684B
:107D500006689E4203D90668F61A06601AE00668AD
:107D60009B1B06683444002606600B4E35680A4F9C
:107D7000C6693E60C66846B10E1926F07F46466069
:107D8000C66886601668C661156000BF0248006854
:107D90000028DBD100BFF0BDD04F002030B5044635
:107DA0001088C01C984201D90C2030BD02201588D3
:107DB00048551088401C10800120158848551088AF
:107DC000401C108015884C551088401C10800020E5
:107DD000EBE700003EB500BF9DF8000020F00F006B
:107DE000401C00909DF8000020F0F0001030009042
:107DF00000BF032214A168467CDF044600BF25466D
:107E000025B100BF2846FFF707F800BF00BF0020DC
:107E1000019002905020ADF80400C820ADF8060093
:107E20000020ADF808004FF4C870ADF80A0001A8B2
:107E30007ADF044600BF254625B100BF2846FEF77D
:107E4000EBFF00BF00BF3EBD4465760070B500216A
:107E5000064800F045FC044600BF254625B100BF9A
:107E60002846FEF7D9FF00BF00BF70BD286E002076
:107E700010B504461CB1132000F097FD0CE0132050
:107E800000BF4FF0A0410A46012303FA00F1C2F8F7
:107E90000C1500BF00BF00BF10BD000070B586B05C
:107EA00005460E46306868637068A863B068E8638A
:107EB000F068286430696864394B0FCB01AC0FC49B
:107EC000A91C01A862DF044600BF204608B106B025
:107ED00070BD00BFA8788DF8160041F22350ADF8B0
:107EE00014002A4605A90120A8DF044600BF204649
:107EF00000B1ECE700BF092341F22452291D2846B6
:107F0000FEF731FE044600BF204600B1DFE700BFA8
:107F1000092341F2255205F10C012846FEF723FE04
:107F2000044600BF204600B1D1E700BF0E2341F256
:107F3000265205F114012846FEF715FE044600BF3F
:107F4000204600B1C3E700BF082341F2275205F1E4
:107F50001C012846FEF707FE044600BF204600B17C
:107F6000B5E700BF042341F2285205F12401284659
:107F7000FEF7F9FD044600BF204600B1A7E700BFA9
:107F8000082341F2295205F12C012846FEF74AFD4B
:107F9000044600BF204600B199E700BF002096E7E5
:107FA0004CA2020070B504460D462E46208850288B
:107FB00004D12146304601F0C7F900E000BF00BF00
:107FC00070BD00002DE9F05F81468A4614469B464D
:107FD000A0790006E17940EA0140217A40EA0120D7
:107FE000617A40EA0106A07A0006E17A40EA01409F
:107FF000217B40EA0120617B40EA0108A07B00066A
:10800000E17B40EA0140217C40EA0120617C40EABA
:10801000010725483844002841D024490844B8B114
:108020002349084420B123490844002838D135E0C9
:10803000214890F8D80D022809D002211E4880F866
:10804000D81D0021C0F8D41D304600F0C3F828E048
:10805000194890F8D80D02281FD10121164880F840
:10806000D81D00250FE005EB8501144850F83100BC
:1080700040B905EB8501114840F83160304600F009
:10808000B9F809E06D1C642D06DA05EB85010B4893
:1080900050F83100B042E6D100BF02E001E000E05C
:1080A00000BF00BFBDE8F09F82855A28675A8CD672
:1080B0008F0617FC339E90A4EC5F00200C5000202C
:1080C0002DE9F04188B080460E46144604F10B00BD
:1080D000C5B200271C2101A8FEF739F913208DF83D
:1080E0000400D5208DF80500134908680DF106013C
:1080F000FFF73CFC0DF10A014046FFF737FC00207A
:1081000005E0325C00F10A0101AB5A54401CA04268
:10811000F7DB002003E001A9095C4F40401CA842A6
:10812000F9DB681E01A90F54294601A801F036FAAF
:1081300008B0BDE8F0810000EC4F00207CB505469A
:108140000C4600200090019069460648FFF70EFC9F
:1081500001A92846FFF70AFC082269462046FFF7D6
:10816000AFFF7CBD3F5DA5C1FEB506460C4615467A
:10817000002000900190029069460748FFF7F6FB47
:1081800001A93046FFF7F2FB8DF808400922694645
:108190002846FFF795FFFEBD15E2D1AD7CB506463A
:1081A0000C46154600200090019069460848FFF7EC
:1081B000DDFB01A93046FFF7D5FB0DF10601204696
:1081C000FFF7D0FB082269462846FFF779FF7CBD00
:1081D0007AEDA75738B50446002000906946044858
:1081E000FFF7C4FB042269462046FFF769FF38BD4C
:1081F0000420190138B5044600200090694604485F
:10820000FFF7B4FB042269462046FFF759FF38BD4B
:1082100018201901FEB506460C46154600200090B0
:108220000190029069460748FFF7A0FB01A930467C
:10823000FFF79CFB8DF80840092269462846FFF7A6
:108240003FFFFEBD15E2ADDE024600210CE001EB72
:108250008100074B33F82000904204D101EB8100EC
:1082600003EB80007047491C0029F0D00020F9E79B
:10827000807100202DE9F0410446A08800EB020C3B
:10828000B4F80480904501DD104600E0A088A8EB1A
:108290000005E088C618B4F80680984501DD184648
:1082A00000E0E088A8EB00074888B4F8008040456B
:1082B00004DB4888B4F80280404502DD0020BDE8B8
:1082C000F0818888A84202D38888604501D90020BF
:1082D000F5E7C888B84202D3C888B04201D9002067
:1082E000EDE70120EBE70146086808B102680A6083
:1082F000704710B50120FFF77BF910BD10B500F0F5
:108300004BFD00200149887010BD0000287200203C
:108310001721018041800021017141711B21817170
:10832000C17170472DE9F041064600274748D0F853
:10833000008078E016B13446E66947E044480078AA
:1083400000EB40014248001D00EBC105001F007812
:10835000401C3F490870084600788978884202D15D
:1083600000203B4908706C68287801281AD0022840
:1083700002D0032817D107E0686801F04BFD00B177
:108380000127002020744EE007E0304908680021F2
:1083900001742E4AC169116000BF2C480068002892
:1083A000F3D140E000E03EE000BF207C00B13AE0C5
:1083B000A8686060E868A0602869E0606869A061FA
:1083C0002448007808B10020606000BF224960683E
:1083D0000968401A20F07F402049884208D21E498F
:1083E0006068096801F0A8FCA168084420600FE0FB
:1083F00019486168006801F09FFC0546A068A84222
:1084000003D9A068401B206001E00020206000BF6D
:1084100000206060A060012020740020E061204600
:1084200001F0C4FC00BF002E84D10948007808493F
:1084300049788842F8D11FB904480068404502D005
:108440000120BDE8F0810020FBE70000D04F0020B4
:10845000B8720020E34F0020D44F0020FFFF7F00C0
:1084600001F0BDFDFFF745FF41F6F4510C48FDF763
:108470006EFF01F011FC01F089F8FFF73CF8FFF7FF
:10848000A9FCFFF7E3FCFFF701FA01F07DFBFEF723
:10849000E3FBFEF74DFC00F067FD00BFFEE70000C8
:1084A000EC4F00202DE9F04105460E461446984653
:1084B000A888871C2088801C3844404502D90C209D
:1084C000BDE8F081FE2F01D90C20F9E7781C218846
:1084D00070542088401C2080FF2021887054208800
:1084E000401C208022889119288801F0A0FD218855
:1084F00008442080A88800280DDDA86808B9072056
:10850000DEE7AA8823889819A968FDF707FF208865
:10851000A988084420800020D2E700002DE9F0411E
:10852000054600241DE004EB4400104901EB8000E7
:1085300040884FF6FF71884212D104EB44010B4A88
:1085400002EB8100294600F03CF9064600BF3746A1
:1085500027B100BF3846FEF75FFC00BF00BF02E056
:10856000641C032CDFD300BFBDE8F0814C6E0020FB
:108570002DE9F84F05460F461446984628780128FD
:1085800004D1687810B90720BDE8F88F2088801CD6
:10859000404508D82878012807D12088801C6978B0
:1085A0000844404501D90C20EEE72088A8EB0000E4
:1085B000801E86B200962188891CC81969467DDF15
:1085C000814600BF484600B1DEE700BF2878022898
:1085D00006D1BDF80000B04202DC4FF0090A0BE002
:1085E0004FF0080A2878012805D16878B04202DCEB
:1085F0006878009000E00096BDF80000FE2801D9E0
:108600000C20C1E7BDF80000401C21887854208868
:10861000401C2080208807F800A02088401C208073
:108620002088BDF80010084420800020ACE770B519
:1086300005460C4604F01F0301229A40D14362090B
:1086400005EB820000F020F8064670BD10B502462A
:10865000480952F8200001F01F040123A3401840EC
:1086600008B1012010BD0020FCE770B505460C469E
:1086700004F01F03012202FA03F1620905EB8200F4
:1086800000F00DF8064670BDF8B504460D466A4682
:1086900029462046FDF7D7FD06460098F8BDF8B5F7
:1086A00004460D466A4629462046FDF7BFFD0646AC
:1086B0000098F8BD30B502460B46D40802F0070218
:1086C000012090401D5D284030BD30B50B46C208EA
:1086D00000F007009C5C012585402C439C5430BD74
:1086E00070B504460E4600BF0CB90E2070BD00BF29
:1086F00026621720208060801B202071002505E065
:10870000A11D01EBC500FFF703FE6D1C032DF7D380
:108710000020EBE72DE9F04106460F463D46B488C0
:10872000032C01DBBDE8F0813088242820D006DC52
:10873000102809D011280CD0232823D11DE03A2875
:108740000CD055281ED10EE03146284600F0B4FC6E
:1087500019E03146284600F03EFD14E03146284637
:1087600000F07AFD0FE03146284600F03FFD0AE0B8
:108770003146284600F0D4FC05E03146284600F09A
:10878000F9FC00E000BF00BFA81D00EBC4000079A9
:10879000A8B1A81D30F834102046A5DF8046B8F1F6
:1087A000000F0AD10021A81D00EBC40001710121B6
:1087B000A81D00EBC400417100E000BF00BF00BF76
:1087C000B0E7024600BF0AB90E20704700BF00BFE5
:1087D0001078DE2801D00820F7E700BF5180002084
:1087E000F3E7024600BF0AB90E20704700BF00BF82
:1087F00009B90E20F9E700BF1078DE2801D1082062
:10880000F3E708685060DE2010704FF6FF7050806C
:108810000020EAE770B504460E4600BF06B970BDF9
:1088200000BF00BF04B9FAE700BF354600BF287893
:10883000DE2800D0F3E700BFA0886988884202D113
:10884000284601F035FC2088012806D0022809D0EE
:10885000112811D0512817D109E0211D284600F018
:1088600063FD12E0211D284600F05DFD0DE0211D95
:10887000284600F023FD08E0A0886988884202D1DC
:108880004FF6FF70688000E000BF00BF00BFC6E782
:1088900001464FF08040405808B101207047002049
:1088A000FCE708B500224FF080410A5009580091BA
:1088B00000BF08BD01490860704700000803004080
:1088C000012291070A50704710B500240C48007827
:1088D00008B1852411E000200949886048600861DA
:1088E000C860084800F046FA044600F0CDF908B91F
:1088F00000F036FA012002490870204610BD000041
:1089000028720020C576020008B500200090684655
:10891000FEF71EFB0748C068401E0649C8600846AF
:10892000C06808B9FFF7EAFC9DF80000FEF716FBE7
:1089300008BD000028720020F0B5DDE9054500BF44
:108940004FF0A0473E4641EA420747EA830747EA1D
:10895000042747EA054C06F5E06747F820C0F0BD5C
:1089600010B50A4600BF4FF0A043194601F5E06379
:1089700053F8203023F4403401F5E06343F82040FD
:1089800053F8203043EA024401F5E06343F8204005
:1089900010BD014600BF4FF0A040024600BFD2F814
:1089A0001005C84000F00100704700BF4FF0A04123
:1089B0000A46012303FA00F1C2F8081500BF704708
:1089C00010B561B900BF00BF4FF0A04213460124AB
:1089D00004FA00F2C3F80C2500BF00BF0CE000BF92
:1089E00000BF4FF0A0421346012404FA00F2C3F87E
:1089F000082500BF00BF00BF10BD000038B50B4602
:108A0000074C24680094014606E05DF82140D4F844
:108A100010551560121D491CC4188C42F5D838BD7C
:108A20007CA20200014601480844704700600040F3
:108A300038B504462046FFF7F5FF002101602046C7
:108A4000FFF7F0FF0068009000BF38BD10B5044686
:108A50002046FFF7E7FF0068012800D110BD002085
:108A6000FCE7000001490860704700000463004013
:108A700010B5044600BF2046FEF7CEF900BF10BD7A
:108A8000014609B90E2070470248006808600020BE
:108A9000F9E700005CA30200FEB505460C4620463F
:108AA000FFF7EEFF06460EB13046FEBD00200090F7
:108AB000019002908DF8005003208DF802000221F1
:108AC000ADF8041069462020226869DF06460020C0
:108AD00000900190029001208DF8010002208DF895
:108AE000020001208DF8030069464020226869DFFA
:108AF000064600200090019002900A208DF80000A8
:108B000069460120226869DF064600200090019036
:108B100002904FF4B06000906946A120226869DF9E
:108B2000064600200090019002908DF800006946F2
:108B3000A020226869DF06460020B6E770B504462B
:108B40002668204660DF05462068B04200D800BF96
:108B500015B9012001490870284670BDE74F002073
:108B60002DE9F04192B080461748007810B912B054
:108B7000BDE8F0811CE03420049004A905A861DF61
:108B8000044604B115E005AD104901A800F0AFF8A6
:108B900009E000BF03980646376828467168B84761
:108BA00001A800F0C5F800BF03980028F1D100BF6C
:108BB000E1E700BF052C04D000BF2046FEF72CF9EA
:108BC00000BF00BFD3E70000E74F002050A3020022
:108BD0001CB51C48007808B108201CBD01201A49AA
:108BE0000870002000F096FE112801D10020F4E763
:108BF000002000F0ADFE15480068019000200090B4
:108C00006846FEF7A5F9124901A810DF04460CB921
:108C1000012000E000200B4908709DF80000FEF7DD
:108C20009DF90CB12046D8E7002007490870094992
:108C3000087001F012F801F001F8012000F088FE40
:108C40000020CAE7E44F0020E64F00202CA30200DA
:108C5000BD6D0200E54F00203EB50A49684600F0B0
:108C600046F809E0684600F03FF804462568606869
:108C7000A847684600F05CF8684600F035F8002820
:108C8000F0D13EBD20A302000148007870470000EB
:108C9000E44F00202DE9FF41074618E003A84BDF11
:108CA000044604B114E00F49684600F020F809E0DA
:108CB00000BF029805462E6869680398B047684669
:108CC00000F036F800BF02980028F1D100BFE5E7B8
:108CD00000BF052C04D000BF2046FEF79DF800BF62
:108CE000BDE8FF8170A3020001468868704770B537
:108CF00004460D46256028686060204600F001F8B3
:108D000070BD14E0D0E900215268914202D10021E7
:108D1000816070474168096842685268914203D097
:108D2000416809688160F4E7416808314160E9E71A
:108D300010B50446A06800B910BD2168A068896814
:108D40000844A060D4E901104968884205D16068F0
:108D5000083060602046FFF7D4FF00BFECE700005A
:108D600010B500F0B5F801200149086000BF10BD42
:108D70001805004001460020064A12790AB18520F4
:108D800006E0044A11600122024B1A7100225A7156
:108D9000704700009C4F002010B50C20FFF790FD9D
:108DA00000BF00BF03480068C0F300400028F8D1AE
:108DB00010BD00001804004070B5044604B970BD31
:108DC000024EA5012846B04700BFF8E7D1A2020035
:108DD00070B50546284600F0F9FB20B10021284671
:108DE000FFF7BEFD18E0284600F0FCFBA0B12846C6
:108DF000FEF74AFC04462046084951F8201021F0AD
:108E00000102064941F8202000BF012101FA04F0C7
:108E10000349086000BF00BF70BD0000106500403E
:108E2000086300402DE9F04706460D46304600F045
:108E3000CDFBE0B13046FEF727FC083822490F5C35
:108E4000BC11032C08D13046FFF7A3FD08B1032065
:108E500000E00220804605E0012C01D1022000E064
:108E60000320804641463046FFF77AFD2AE030462F
:108E700000F0B8FB30B33046FEF706FC0446A00015
:108E800000F5807087B22046104951F8201041F05B
:108E900001020E4941F8202000BF3846FFF7C8FD07
:108EA0007DB13046FEF7F0FB8146FEF7E5FB8046DC
:108EB000B8F1000F04D0012101FA04F0FFF7D2FD50
:108EC00000BF00BFBDE8F0878C7200201065004035
:108ED000F0B5072300200146C41700EBD4646411E9
:108EE000A40004F1E024D4F800410246C51700EBC9
:108EF000D5656D11A0EB45160125B5402C400CB190
:108F0000012400E0002444BB00221C4610462146F8
:108F1000002807DA4D072F0E104D00F00F06361F00
:108F2000AF5503E04D072E0E0D4D2E5400BF00BF70
:108F3000002000BF012181400A4A440942F8241060
:108F400000BF00BF012181404209920002F1E022EE
:108F5000C2F8001100BF00BF00BFF0BD18ED00E077
:108F600000E400E080E200E08BDF00BF024903483C
:108F70008ADF0028FAD170477C4F0020844F002000
:108F80002DE9FC5F0646B469B78B96F91300019092
:108F9000F51C2879697940EA0129E8780006A97862
:108FA00040EA0140697840EA0120297840EA010A54
:108FB000A078E17840EA012B6079217940EA01202C
:108FC00000904EF2152081450AD140F2DA308345F7
:108FD00006D194F8088041465046FEF701FD17E09F
:108FE00041F2D5310098884212D14FF00008042098
:108FF00003E0215C81EA0808401CB842F9DBB8F1C3
:10900000000F04D1FAB22146024800F045FA00BF31
:10901000BDE8FC9FAE6E002070B50546AE883046B8
:10902000FFF712F9044674B14FF6FF7340F2F312E2
:1090300005F1080104F10A00FFF71CF960722146EE
:109040003046FEF74FFC70BD2DE9F0410546EF7B41
:10905000AE88012F01D0BDE8F0814FF6FF70FFF719
:10906000F3F804461CB9042000F08CFCF3E700BFC1
:109070002680002020720E480168C4F80A1040685B
:10908000C4F80E0000BF4FF6FF7340F2F31205F173
:10909000100104F10A00FFF7EDF860720548C0897D
:1090A00018B921463046FEF71DFC00BFD3E700008B
:1090B000924F0020947100202DE9F04105460F46A3
:1090C000B7F80480A81D00EBC8042879A071F87BCC
:1090D000012802D0022806D102E02888208003E07F
:1090E0006888208000E000BF00BF20886188884237
:1090F0000BDD21884046A5DF064616B901206071C8
:1091000003E0112E01D101202071A079E17988427C
:1091100003DDA1794046FEF70FFCBDE8F0810000B9
:1091200070B58EB004460E462C22311D03A8FDF703
:10913000F5F8BDF80C50BDF81000C1B2A01D00EB51
:10914000C500C171206A80B1094903C9CDE9010197
:10915000ADF80650A01D00EBC500C0798DF80800E1
:1091600001A92046226A904700BF0EB070BD0000E2
:1091700074A202002DE9F04705460E46341D2188F1
:10918000A81D00EBC10794F80480B879404501DAC6
:10919000B87900E04046814620884946FEF7CCFB7E
:1091A000BDE8F0872DE9F0410646B7883846FFF75D
:1091B0004BF805466DB16868FDF7B2FE044614B180
:1091C000204600F0DFFB00BF4FF6FF70288000BF95
:1091D00000BFBDE8F08170B504460D46AA88A11D08
:1091E00001EBC200FFF794F870BD00002DE9FC47C9
:1091F00005460E46B788B6F80690A81D00EBC704D2
:10920000B9F1170F01DA172000E04846814620889F
:10921000484501DD484600E020886080002020713C
:1092200021883846B5DF8046607908B1BDE8FC8703
:10923000286A68B1074903C9CDE90001ADF8027099
:109240006088ADF80400694628462A6A904700BF46
:1092500000BFEBE76CA202002DE9FC4105460E467B
:10926000B788B6F80A80A81D00EBC70420884045DF
:1092700001DD404600E0208860806088172801DA20
:10928000172000E060886080286A78B1607968B152
:10929000094903C9CDE90001ADF802706088ADF855
:1092A0000400694628462A6A904700BF0020607182
:1092B0002071BDE8FC81000064A202002DE9FF419D
:1092C00006460D4628887188884201D0BDE8FF8196
:1092D000AC1C2078022800D0F8E7207A042806D0B9
:1092E000207A062803D0207A052800D0EEE7002057
:1092F000009001900290039002208DF800004FF43E
:10930000C070ADF80400207A052802D10020ADF825
:10931000040028886946B0DF074617B138467168EF
:10932000884700BFD2E7704770B504460D462879DC
:10933000012808D128886188884204D10120207240
:10934000204600F0B5FE70BD70B504460E46B51D52
:109350002888A18888420BD16889092808D1606BC8
:1093600030B1B08805F10C022146636B98473EE0AE
:109370002888A18988420BD16889092808D1A06B67
:1093800030B1B08805F10C022146A36B98472EE05E
:109390002888A18A88420BD168890E2808D1E06B01
:1093A00030B1B08805F10C022146E36B98471EE00E
:1093B0002888A18B88420BD16889082808D1206CA5
:1093C00030B1B08805F10C022146236C98470EE0BD
:1093D0002888A18C88420AD16889042807D1606C4A
:1093E00028B1B08805F10C022146636C984770BD26
:1093F0002DE9F0410446A51D28881249C9898842F3
:109400001DD1688902281AD1B4F804804046FEF7BD
:109410001BFF064696B105F10C00FEF763F820B17C
:1094200031464046FEF75EFA08E07068FDF778FDC9
:10943000074617B1384600F0A5FA00BF00BFBDE8E7
:10944000F08100009471002030B5034693F80F01BD
:10945000401CC4B293F90F0193F90E51A84201D1F7
:10946000002030BD0A2C00DB002400200DE093F921
:109470000F5105EBC50505EB45051D442D5C0D544D
:109480000D5C0DB1451C1570401C1B28EFDB60B254
:1094900083F80F010120E4E7F0B50B46144690F87D
:1094A0000E11491CCDB20A2D00DB002590F90F11D9
:1094B000A94200D1F0BD90F90F1120E001EBC102EB
:1094C00002EB42021618621EB65C9A5C964211D1FB
:1094D000002200E0521C0A2A08DA9E5C01EBC10758
:1094E00007EB47070744BF5CBE42F3D00A2A00D10E
:1094F000E0E700BF092901D14FF0FF31491C90F985
:109500000E218A42DAD1002115E0A14209DA5A5C23
:1095100090F90E6106EBC60606EB46060644725449
:1095200008E0002290F90E6106EBC60606EB46063F
:1095300006447254491C1B29E7DB69B280F80E11FE
:1095400000BFB7E700B589B001AA02A90D48FFF72F
:109550007BFF40B19DF8041002A8FDF7E3FF10B9AE
:10956000084800F027F801AA02A90748FFF76CFF96
:1095700030B19DF8043002AA00210846FEF722FD12
:1095800009B000BDBE6F0020AE6E002010B5C8212E
:10959000014800F0BDFB10BD4595020070B50446C2
:1095A0000D462A4621460248FFF776FF70BD0000AF
:1095B000BE6F002090F80F21521ED1B20A2900DBA5
:1095C00009214AB280F80F21704700000146044883
:1095D0004056082801DB012070470020FCE700000E
:1095E0006C720020014606484056002805DB0448FE
:1095F0004056082801DA012070470020FCE70000EF
:109600006C72002010B50446142C01DB002010BD44
:1096100021460548FFF729F821460348001FFFF7B8
:1096200024F80120F3E70000B871002070B505466A
:10963000002406E0044901EB84002946FEF7F7FF09
:10964000641C1D2CF6D370BDB471002010B598B009
:109650000F488068C04317900D48416817A8FFF76E
:1096600013F8179901A8FEF789F82C2201A90CA874
:10967000FCF754FE002405E00DA931F81400FFF7B3
:10968000D5FF641C0C98A042F6D818B010BD00009D
:10969000B071002010B5044621460248FEF7C7FF0E
:1096A00010BD0000B871002001490860704700003B
:1096B0004015014001480068704700000415014052
:1096C00010B504460348046007211120FCF78EFF03
:1096D00010BD00000815014010B54FF480300A4954
:1096E00008600A49C1F804031120FCF75BFF112050
:1096F000FCF764FF0120054908602F20FFF75CFBA1
:1097000001200349087010BD4413014000100140BE
:10971000E24F002010B51120012181400E4A43097B
:1097200042F8231000BF4FF480300C4908600C4908
:10973000C1F80803012048602F20FFF73DFB0120FE
:10974000074988600020074908602F20FFF734FB95
:1097500000200549087010BD80E100E04813014079
:1097600000100140D44F0020E24F002070B50446A5
:109770002046FDF727F910B942F2010070BD2046DE
:10978000002806DA184900F00F02121F895C490907
:1097900002E01649095C49090D462846FDF734F9EF
:1097A00010B942F20200E9E71148806868B1600927
:1097B0000F4951F8200004F01F0201219140084395
:1097C00061090B4A42F821000CE000BF04F01F01C0
:1097D000012088406109890001F1E021C1F8000100
:1097E00000BF00BF0020C9E718ED00E000E400E082
:1097F000C473002070B504460D462046FDF7E2F81C
:1098000010B942F2010070BD2846FDF7FDF810B90D
:1098100042F20200F7E720462946002807DA4A0705
:10982000160E064A00F00F031B1FD65403E04A072A
:10983000130E034A135400BF0020E4E718ED00E0C4
:1098400000E400E070B50446FDF7D8F8054614487A
:109850008068D8B90120124988601248006812490E
:1098600008400F49086010484FF0E021C1F880011E
:109870000C488038D0F88400094948604FF0FF3127
:109880000848001D01600020207001E001202070C8
:109890001DB900BF62B600BF00BF002070BD000050
:1098A000C473002080E100E0FC06FFBD38B504462B
:1098B0000D4624B1012C0BD0032C24D11EE0002036
:1098C00001218140114A430942F8231000BF1BE0E7
:1098D000002000906846FDF73BFB0D48007808B972
:1098E000FEF7F2FF0A48C068401C0949C860012021
:1098F00088709DF80000FDF731FB05E0FFF730FAB6
:10990000FFF702F800E000BF00BF38BD80E100E0D3
:1099100028720020FEB505460C496846FFF7E7F9B6
:109920000DE06846FFF7E0F90446266828466168BE
:10993000B04708B91120FEBD6846FFF7F9F968463F
:10994000FFF7D2F90028ECD100BFF4E7E8A202004B
:10995000FEB505460A496846FFF7C9F90AE06846B8
:10996000FFF7C2F90446266828466168B047684692
:10997000FFF7DEF96846FFF7B7F90028EFD1FEBD23
:1099800004A3020010B504460348806918B10248D8
:1099900081692046884710BD9471002070B5054646
:1099A0000E463146284675DF044624B1112C02D0FC
:1099B0002046FFF7E7FF0CB9012070BD0020FCE74F
:1099C0002DE9F04707460E4614469A46B86A10B984
:1099D0000720BDE8F0874FF0000836E008EB4801AB
:1099E000B86A00EB8105A88800F10209B9F1FE0F01
:1099F00001D90C20EDE709F101002188705420887D
:109A0000401C20801620218870542088401C208013
:109A100022889119288800F00AFB218808442080B8
:109A2000A88800280DDDA86808B90720D1E7AA8812
:109A300023889819A968FCF771FC2088A988084434
:109A4000208008F1010000F0FF0897F82C00404545
:109A5000C4DC0020BDE72DE9F041074688461446E6
:109A600020780006617840EA0140A17840EA0120B0
:109A7000E17840EA010520790006617940EA014079
:109A8000A17940EA0120E17940EA01062946304601
:109A9000FEF754FBBDE8F0812DE9F047804689468A
:109AA000144620780006617840EA0140A17840EA37
:109AB0000120E17840EA010520790006617940EA59
:109AC0000140A17940EA0120E17940EA0106277AC4
:109AD0002A4639463046FEF747FBBDE8F0872DE9B8
:109AE000F05F8346144620780006617840EA014022
:109AF000A17840EA0120E17840EA01056079217906
:109B000040EA0126E079A17940EA0127607A217ACA
:109B100040EA0128E07AA17A40EA0129607B217BB2
:109B200040EA012A2A4639463046FEF737FBBDE8AF
:109B3000F09F2DE9F04780468946144620780006BC
:109B4000617840EA0140A17840EA0120E17840EAEA
:109B5000010520790006617940EA0140A17940EAD7
:109B60000120E17940EA0106277A2A463946304643
:109B7000FEF750FBBDE8F087F0B505460E461078BD
:109B800051789378D478F0BD70B586B000200590F8
:109B900014216846FCF7DBFB19480590002512E00C
:109BA00005EB4501174A02EB810005A9FEF719FEF6
:109BB000044600BF264626B100BF3046FDF72CF90B
:109BC00000BF00BF6D1C032DEAD30F4800900F4863
:109BD00001900F4802900F4803900F480490694687
:109BE0000E48FEF75BF9044600BF254625B100BFCD
:109BF0002846FDF711F900BF00BF06B070BD000098
:109C0000718A02004C6E0020999A0200339B020078
:109C1000DF9A0200579A0200799B0200E06D002053
:109C200070B504460D462CB9012003494870002048
:109C3000FDF730FD70BD00002872002070B51620C1
:109C4000FFF794FD044600BF254625B100BF284616
:109C5000FDF7E2F800BF00BF70BD70B50721162008
:109C6000FFF7C8FD044600BF254625B100BF2846C2
:109C7000FDF7D2F800BF00BF07211520FFF7BAFD9E
:109C8000044600BF254625B100BF2846FDF7C4F8AD
:109C900000BF00BF70BD000030B51A4800684FF427
:109CA0007A72B0FBF2F1481EB0F1807F00D31BE066
:109CB000481E4FF0E022506150170722002807DAB3
:109CC00053071D0E104B00F00F04241F1D5503E019
:109CD00053071C0E0D4B1C5400BF00204FF0E02218
:109CE00090610720106100BF4FF0FF3000F01F02AD
:109CF000012191404209920002F1E022C2F80011D4
:109D000000BF30BDE84F002018ED00E000E400E0A7
:109D10000246002000E0401C0A2804DA054B53F8F4
:109D20002030002BF7D1034B43F82020283343F891
:109D3000201070470C7100200246501A20F07F401E
:109D4000704710B50446D4E90510884710BD0000DF
:109D50002DE9FC410020019000260E4804680E48C1
:109D600007686846FDF70AFE05462DB101AA21469F
:109D70000098FDF7E7FF01260198FEF7D3FA00B13E
:109D8000012616B13846FDF7B1FC002003490870E2
:109D9000BDE8FC81D44F0020D04F0020E34F0020CD
:109DA00010B51420FCF716FC10BD000010B51849C2
:109DB000096811B91649086028E0154A0168126857
:109DC000126891420DD81249096809680268891A17
:109DD0000F4A126811600E490968C1610C49086098
:109DE00014E002680A4C2368216803E00C68121B27
:109DF0000B46C96911B10C689442F7D311B10C68D4
:109E0000A41A0C600260C161D86100BF10BD0000DF
:109E1000D04F00202DE9F04106461C48D0F80080C4
:109E200005682C4604E0B44200D103E02546E4690D
:109E3000002CF8D100BF14B90020BDE8F081A54284
:109E400013D112480068C0691049086008460068CC
:109E500058B901200E49886000200E490860012091
:109E60000D4908702F20FEF7A7FF2768E069E86119
:109E7000EC6914B1206838442060044800688045CB
:109E800001D00120D9E70020D7E70000D04F002003
:109E900000100140D44F0020E34F00202DE9FC4783
:109EA00005460E46174698464FF0000900200090E0
:109EB0006846FDF74DF801A800F010F9044614B902
:109EC0004FF004090DE0012020706560FFF7F2FB00
:109ED000A060E6602761C4F814809DF8040000F0DB
:109EE0001BF99DF80000FDF739F8B9F1000F01D119
:109EF000FFF756FF4846BDE8FC872DE9FC410546C3
:109F00000E460027002000906846FDF721F801A8C2
:109F100000F0E4F804460CB9042705E026706560FB
:109F20009DF8040000F0F8F89DF80000FDF716F821
:109F30000FB9FFF735FF3846BDE8FC812DE9F04148
:109F40001F480068002838D00027FFF7B3FB804681
:109F50001C4801684046FFF7EFFE064618480568B2
:109F600010E02868B04200D90EE02868361A286848
:109F700007442C46ED69207C20B100202074204647
:109F8000FFF7DFFE002DECD100BF0F4800780F492E
:109F90000978884209D10D480078401CC0B20B49AD
:109FA0000870022801D10020087009480749097883
:109FB00040F82170FFF7F4FE00BFBDE8F08100001B
:109FC000D04F0020D44F0020E04F0020E14F002070
:109FD000D84F002010B51120FCF7FCFA10BD10B5C9
:109FE00000BFFCF745FF0028FBD110BD30B504468B
:109FF0001088C01C984201D90C2030BD0220158861
:10A0000048551088401C10800A2015884855108833
:10A01000401C108015884C551088401C1080002072
:10A02000EBE7014608784A7840EA0220704702468A
:10A030000A70100A4870022070470000F8B5064602
:10A040003546A8B2FEF700F904466CB3207A1749EA
:10A05000097B88420ADAA8B204F10A01FFF79EFCE4
:10A06000074617B1207A401C20721DE000202072A4
:10A070000E48007C50B1A8B23B2176DF074627B1DD
:10A08000082F02D03846FFF77DFC00BF0748406923
:10A0900050B100208DF80000A8B2ADF802000348CE
:10A0A00041696846884700BFF8BD000094710020F0
:10A0B00070B50446207A80B16088002166DF0546CD
:10A0C00015B90020207207E0112D02D10120207265
:10A0D00002E028466168884700BF70BD10B502469F
:10A0E0000C484078401CC1B20A488078884200D1B0
:10A0F000002108480078884201D1002010BD11706D
:10A100000448407800EB40040248001D00EBC40303
:10A110001846F3E7B8720020014948707047000004
:10A12000B87200202DE9FC478046894615469A46BC
:10A13000DDE90A675346022249464046CDE90067F9
:10A1400000F017F8044600BF204608B1BDE8FC87C0
:10A1500000BF5346102229464046CDE9006700F073
:10A1600008F8044600BF204600B1EFE700BF00201A
:10A17000ECE72DE9FF5F07468B4696461D460E9C91
:10A180004FF0000920880390C84647E0786800EB4C
:10A19000880000680190002202A901A864DF064639
:10A1A00000BF304610B104B0BDE8F09F00BF9DF87D
:10A1B0000800704530D1B9F1000F01D0002000E057
:10A1C0000220009020889DF8081001440098014466
:10A1D0000F98814201DD0C20E5E7B9F1000F0AD1AB
:10A1E0002088401C2080208805F800B02088401C72
:10A1F00020804FF001092088421902A901A864DFDC
:10A20000064600BF304600B1CDE700BF21889DF86B
:10A2100008000844208000BF08F101083888404544
:10A22000B4DCB9F1000F0DD021880398401C081A46
:10A230001FFA80FABAF1FF0F01DD0C20B3E7039893
:10A2400005F800A00020AEE723150000B9466F43D3
:10A25000FAE227D6650DBEA3000000001112131408
:10A260000D0E0F10770A000000000000770A0000B2
:10A27000000000007ADA000000000000000000503A
:10A280006E7266785F6770696F74655F696E697416
:10A29000006E7266785F6770696F74655F6F757462
:10A2A0005F696E6974006E7266785F6770696F745B
:10A2B000655F696E5F696E697400000098720020C6
:10A2C000030000000000000000000000000000008B
:10A2D0000338FDD8704700000000000000000000B7
:10A2E0000000000000000000D8A20200E8A2020066
:10A2F00008000000F4A30200FCA30200000000001C
:10A3000000000000F4A2020004A302000800000004
:10A31000E4A30200F4A3020000000000000000001B
:10A3200010A3020020A302000800000001000007A3
:10A330009CA30200A4A30200A4A30200B4A30200F1
:10A34000B4A30200D4A30200D4A30200DCA3020041
:10A3500030A3020050A3020008000000584F002064
:10A36000DCA30200E4A302000000000000000000E3
:10A3700060A3020070A3020008000000FCA302001A
:10A38000584F002094000000A469020090A402002D
:10A39000EC4F0020E4430000B46902003174020075
:10A3A0000000000015870200286E0020F1730200F3
:10A3B00000000000A57F0200E06D0020158802006B
:10A3C0004C6E002015880200586E0020158802008F
:10A3D000646E00207972020000000000219C0200DF
:10A3E00000000000618B020000000000958C02005C
:10A3F00000000000AD98020000000000FFFFFF0019
:10A40000706E00201F0000008F6E00201F000000F3
:10A41000CE7000201F0000000000000000000000BF
:10A42000ED7000201F00000000012000500000001F
:10A43000000000000000000000000000000000001C
:10A44000000000000000000000000000000000000C
:10A4500000000000000000000000000000000000FC
:10A4600000000000000000000000000000000000EC
:10A4700000000000000000000000000000000000DC
:10A480000000000000000000000000000090D00369
:040000050002620192
:00000001FF
